:020000021000EC
:10F0000000000120E1330200093402000B34020049
:10F010000D3402000F340200113402000000000021
:10F020000000000000000000000000001334020097
:10F0300015340200000000001734020019340200E9
:10F040003D1D02001B340200493902001B3402003E
:10F050001B3402001B3402007D2102001B3402001D
:10F060001B3402001B3402001B3402001B3402005C
:10F070001B3402001B3402001B3402001B3402004C
:10F080001B340200A5A102001B3402001B34020045
:10F0900069A202001B340200693802001B3402001E
:10F0A0001B3402001B3402001B3402001B3402001C
:10F0B0001B3402001B3402000000000000000000AE
:10F0C0001B3402001B3402001B3402001B340200FC
:10F0D0001B3402001B3402001B340200000000003D
:10F0E0000000000000000000000000000000000020
:10F0F0000000000000000000000000000000000010
:10F1000000000000000000000000000000000000FF
:10F1100000000000000000000000000000000000EF
:10F40000044B05481B1A062B02D9044B03B11847BD
:10F41000704700BFAB210020A821002000000000A1
:10F4200005490648091A891001EBD171491002D02B
:10F43000034B03B118477047A8210020A8210020E2
:10F440000000000010B5064C237843B9FFF7D8FF41
:10F45000044B13B10448AFF300800123237010BDA7
:10F46000B821002000000000DCBB020008B5084BFA
:10F470001BB108490848AFF300800848036813B976
:10F48000BDE80840CCE7064B002BF9D09847F7E7DA
:10F4900000000000BC210020DCBB0200A4210020F1
:10F4A00000000000154B002B08BF134B9D46A3F531
:10F4B000803A00218B460F461348144A121A00F076
:10F4C00065F80F4B002B00D098470E4B002B00D057
:10F4D00098470020002104000D000D48002802D0AC
:10F4E0000C48AFF3008000F02BF8200029000AF050
:10F4F0002FFB00F011F800BF000008000000012001
:10F500000000000000000000B82100208835002025
:10F51000000000000000000008B5074B044613B1CE
:10F520000021AFF30080054B1868836A03B1984748
:10F53000204600F033F800BF0000000040B5020094
:10F5400070B50E4B0E4CE41AA41000251E46A542C1
:10F5500004D056F8253098470135F8E70BF0E2FF64
:10F56000084C094BE41AA41000251E46A54204D0FD
:10F5700056F8253098470135F8E770BD9C210020EA
:10F580009C210020A02100209C2100200244034651
:10F59000934202D003F8011BFAE77047FEE700BF71
:10F5A0002DE9F0419046C4B01F46B1B104AE0A68DF
:10F5B0004B4930460BF0ECFB00280ADB4A9B054622
:10F5C000062B00F28B80DFE803F03C4C555F6B7933
:10F5D0001300002044B0BDE8F0814A9B062B7BD885
:10F5E000DFE803F02E3D46505C6A0400002504AEBF
:10F5F0007869396997E80C000390FC68BF68009748
:10F6000002910194414670190BF0C2FB0446002C94
:10F61000DFDB2C44B4F5807FDBD80A27002504AE5D
:10F6200022467119002000F07FFB0544241A08B916
:10F63000013F01D0002CF3D1012044B0BDE8F0819E
:10F64000002540460BF0D0FB4319FF2B0446DED8C3
:10F6500004AE4146701922460BF0E5FAD7E70025C3
:10F6600004AE3A68414670190BF092FB0446CEE7AF
:10F67000002504AE4146701997E80C000BF088FB9A
:10F680000446C4E7002504AEB96897E80C00701979
:10F69000009141460BF07CFB0446B8E7002504AE20
:10F6A000F968BC6897E80C00701901910094414614
:10F6B0000BF06EFB0446AAE7002504AE3969FC682E
:10F6C00097E80C00BF6800970291019441467019B9
:10F6D0000BF05EFB04469AE700249EE7002498E7BF
:10F6E00044B502002DE9F04FC5B015461C46DDF8C3
:10F6F0003CA1002900F00F81002B00F0F0800A23CC
:10F70000019300231A4604AE519B20250AEB030BFC
:10F710009146019809EB000302933133F71806EB89
:10F720000903002861D05A4202F00302824228BF36
:10F730000246062800F2CA800246012A06F809504D
:10F7400003F1010100F0C080022A5D7003F10201A3
:10F7500000F0BA80032A9D7003F1030100F0B48029
:10F76000042ADD7003F1040100F0AE80062A1D7149
:10F7700003F1050140F0B0805D71991D9646019836
:10F78000824230D0801A039004384FEA90080198E2
:10F7900000F1FF3CC2EB0C0C08F10100BCF1020FC0
:10F7A0004FEA800813D94A444FF0203C012806EB69
:10F7B000020946F802C005D00228C9F804C001D0E9
:10F7C000C9F808C0039A90454144C6440BD001983B
:10F7D0000D700EF10102824205D20EF1020E864535
:10F7E0004D7000D28D70019A1344DA1C781C03F11D
:10F7F000330CDDF840810CE002F8035C02F8025C97
:10F8000002F8015C0332624500F8015C00F101007E
:10F8100034D0A345F0D9A24588BF4E9902F8015CC7
:10F8200096BFCAEB0401095D18F801104FEA211ECA
:10F830005FFA8EF9BEF1090F01F00F0ED4BF09F186
:10F84000300909F13709BEF1090F02F8039C94BF92
:10F850000EF1300E0EF1370EA1F1200902F802EC84
:10F86000B9F15E0F02F1030288BF2E21624500F854
:10F87000011C04F1010400F10100CAD102990D221A
:10F8800001F143094FF00A083A7487F81180002704
:10F8900083F830504B46B9461F463A4606EB0901FD
:10F8A000002000F041FA81443F1A10B9B8F1010874
:10F8B00001D0002FF1D15C454FF00009FFF429AFD2
:10F8C000204645B0BDE8F08F964658E7002A7FF401
:10F8D00034AF1946964655E74FF0050E4FE704AE94
:10F8E0000A68114930460BF053FA0028E8DB0A2376
:10F8F0000746019328460BF077FAC22828BFC2209A
:10F90000024680462946F0190BF08DF908EB0703F3
:10F9100000241A46F8E61BB90194274604AEE9E72D
:10F9200001910A4604AEEFE644B5020070B50F4DF2
:10F930002B7882B01BB10E4B1B78834212D001266C
:10F94000044600964FF480730A4A0B49002000F0E9
:10F95000A9FA10B1082002B070BD054B2E701C70C2
:10F9600002B070BD002002B070BD00BFD5220020E3
:10F97000D4220020D42100204CB50200004870475A
:10F98000A1F5010000487047E5F6010038B50020F8
:10F99000FFF7CCFF044668B9FFF7F0FF0546FFF715
:10F9A000F1FF054BFF22C3F810541C605C60C3F8E4
:10F9B00014049A60204638BDD82200200120FFF7A9
:10F9C000B5BF00BF2DE9F04383B002AB4FF0000993
:10F9D00003F8019D234C074618460E46D4F80880CC
:10F9E000256800F0E1FA94E80C00A1680B440133AB
:10F9F0009B1A012B07D803BB9DF8070000F0FCFA07
:10FA000003B0BDE8F08301329DF80700226000F0EA
:10FA1000F3FA0122002362F3010369F3820308EA87
:10FA2000050567F3C50304EB850469F3891366F3E1
:10FA30009F23E36003B0BDE8F08301204B4660F3F1
:10FA4000010369F382030520114060F3C5030648F2
:10FA500004EB810169F38913013260F39F23226073
:10FA6000CB60C9E7D822002054B502002DE9F04749
:10FA700082B002AB002703F8017D264C824618466F
:10FA800089469046A668256800F08EFA94E80C0036
:10FA9000A1680B4401339B1A022B07D82BBB9DF89E
:10FAA000070000F0A9FA02B0BDE8F08702329DF825
:10FAB0000700226000F0A0FA0122002362F3010394
:10FAC000A91867F382036AF3C50335400E4004EBBF
:10FAD000850562F3891304EB860469F39F23EB60C9
:10FAE000C4F80C8002B0BDE8F08701203B4660F30B
:10FAF000010367F382030520114060F3C503064844
:10FB000004EB810167F38913013260F39F232260C4
:10FB1000CB60C4E7D822002054B502002DE9F04F95
:10FB200083B00DF1080E00270EF8017D2D4C8346A1
:10FB300070468A4691469846A668256800F034FAD1
:10FB400094E80C00A1680B4401339B1A042B07D8DE
:10FB500093BB9DF8070000F04FFA03B0BDE8F08FAB
:10FB600004329DF80700226000F046FA01220023CB
:10FB700062F3010367F38203A918EF1CAA1C6BF35D
:10FB8000C5030320354004EB850560F389136AF350
:10FB90009F23314032403E40EB6004EB810104EB97
:10FBA00082020C9BC1F80C9004EB8604C2F80C8016
:10FBB000E36003B0BDE8F08F01203B4660F3010332
:10FBC00067F382030520114060F3C503064804EB88
:10FBD000810167F38913013260F39F232260CB60B8
:10FBE000B7E700BFD822002054B502002DE9F04746
:10FBF0004C4E96E80C009A428AB070D0B06804E08F
:10FC0000C4F3891202EB9452134400EA030502354F
:10FC100006EB85020133546814F00302F0D0022A87
:10FC200028D0C4F38312C4F3952C002A75D00DF1AB
:10FC3000100E7546D71800EA030106EB8101013367
:10FC4000C96845F8041BBB42F5D10092C4F3C20059
:10FC500073466246D6F81044324D0021A04738B1B1
:10FC600077603068C01B18BF01200AB0BDE8F0877C
:10FC70006F68F6E703F1010A20EA0A010340013147
:10FC800006EB830389004FEA94588845DA68DFF869
:10FC900094E0C4F3891326D9A9B300EA0A0C5FFAE9
:10FCA00081F90EEB8C0CC9EB08010CF10C0C0EF178
:10FCB0000C00C9B203910290CDF80490CDF800C0B9
:10FCC0000021C4F3C200D6F81474B847404520D0D0
:10FCD00006EB850560F38F146C607768C1E7002040
:10FCE0000AB0BDE8F08700EA0A000EEB80000C3095
:10FCF0008DE801010021DEF8149403910291C4F310
:10FD0000C200C847E2E70EF10C0C08465FFA88F91A
:10FD1000D0E703300AEB9007A2E71F460DF1100E63
:10FD200093E700BFD82200202DE9F84F4300DFF809
:10FD300070A11E180AEBC6068846F16A012917460B
:10FD400041D031D3022939D1013000EB4000756A2E
:10FD50004FEAC0094FF0000B1CE0326A641BBC4242
:10FD60000AEB09012346A2EB050428BF3B469C424F
:10FD7000486828BF1C462844414622460AF053FFE3
:10FD8000336A25449D4208BF00253F1BA344A0447D
:10FD9000756215D0B36AAB4203F1FF34DDD8326A25
:10FDA0001344013B5C1BDAE7B16A726A91429CBF63
:10FDB000346A091901398A1A974236D94FF0000B73
:10FDC0005846BDE8F88FB16A756AA94227D901394A
:10FDD000326AC5EB010B03440AEBC30ABB45DAF8F0
:10FDE00024502F4B28BFBB46561B0130B34500EBB8
:10FDF00040003BD303EBC0043246606841462844D0
:10FE0000C6EB0B050AF00FFF606808EB06012A46F7
:10FE10000AF009FFCAF824505846BDE8F88F326A44
:10FE20008C18013CC5EB040BD5E703440AEBC30A6D
:10FE30000130DAF82460DAF82040194BA41BA742FD
:10FE400000EB40001ED303EBC00522466868414624
:10FE500030443E1B0AF0E7FE686808EB04013246B6
:10FE60000AF0E1FEBB46CAF82460A9E703EBC00331
:10FE7000414658685A4628445D440AF0D4FECAF800
:10FE800024509DE703EBC003414658683A4630448E
:10FE90003E440AF0C8FEBB46CAF8246090E700BFA3
:10FEA000E43400202DE9F0432A4C267883B005463F
:10FEB00088461746994656B32369264AAB4246D927
:10FEC000EFF311834FF0800181F31188019365B93D
:10FED0002846054404EBC5040A9A019BE26283F3B9
:10FEE0001188002003B0BDE8F083691C01EB4101DB
:10FEF000C9006800431902EBC30342F801801144B2
:10FF000000229A624F60C3F820905A62E1E7022211
:10FF1000114B2261114862614FF48061104AA36164
:10FF2000A3641023A66223656662E061A665216270
:10FF3000E2640C49E662E6656665E01D0AF04CFF86
:10FF4000094920460AF048FF2023A371B4E74FF087
:10FF5000FF30C7E7E434002060B50200002700202E
:10FF6000F02600206CB5020070B5020000B585B027
:10FF700000230390194601AA44F20100ADF80430B1
:10FF8000029300F003F805B05DF804FB08B50549DD
:10FF90000120FFF717FDFFF711FDFFF727FE0028EF
:10FFA000FBD1FFDE78B50200F0B4EFF3108472B637
:10FFB0000E4B9A68B2B90E4901259D60D1F8807048
:10FFC0000C4D2E463D401D60C1F88060D1F8845034
:10FFD0005D604FF0FF33C1F88430027004B962B63F
:10FFE000F0BC704701230370F8E700BF5C350020C8
:10FFF00000E100E0FC06FFBC094B9A6872B168B9E9
:020000022000DC
:1000000010B4EFF3108272B606491C680C605C688D
:100010004C60986002B962B65DF8044B704700BF4F
:100020005C35002000E100E0F0B52B4C2B4F6368FD
:10003000668883B0002B48D036015A88B91903323C
:10004000496803EB820201F58050824225D2136891
:10005000013318BF4FF6FF751FD09388AB4213D002
:1000600013888BB162601E485388868801681D48DA
:100070000025033300959BB201EB86010325257013
:1000800001F070FA03B0F0BD5388033302EB830232
:10009000824202D213680133DFD13E44B38963B197
:1000A0000F4D104829680227052600230122AF8042
:1000B000267001F0AFFA03B0F0BD0122094801F04B
:1000C000A9FA0423237003B0F0BD3601BB195968A7
:1000D00001F10802B7E700BF782B0020582B002061
:1000E000002C0020A8210020F0B543688E464BB1BB
:1000F000304A1468A34205D35268934202D813F0E1
:10010000030236D000232C4EAEF800304FF0010C25
:100110004FF6FF757768002307F58054C3B15A88FE
:10012000033203EB82039C4216D91A68013213D0C2
:100130009A88AA42F3D01A88002AF0D002689968F7
:100140009142EBD11D4A4360138903810120F0BD28
:1001500007F108039C42E8D80CF10103AEF800C097
:100160001FFA83FCBCF1030F06F11006D2D1002068
:10017000F0BD124C05892489A542C3D105689C684D
:10018000A542BFD10C4C6068834205D900F5805070
:10019000834201D2134608E062699342E7D902F52F
:1001A0008052934238BF0123E1D2AEF800300120E3
:1001B000F0BD00BFA8210020582B0020782B002084
:1001C000B3F804C0BCF1010F54D82DE9F043DFF8B7
:1001D000AC8091464FF6FF7700224FEA0C1408EBF3
:1001E000040E18F80440002C33D11C68002C3CD0BD
:1001F0006588DEF80460033504EB850406F5805657
:10020000A64225D92568013522D0A588BD4219D03E
:100210002588BDB11C6018B1A6880588AE42E5D11D
:1002200019B126880D88AE42E0D1A268C9F8002035
:100230001A68114BC9F804201B89A9F8083000205E
:10024000BDE8F0836588033504EB8504B442D9D357
:100250001A600CF1010C1FFA8CFCBCF1020FA3F820
:1002600004C0BAD10A20BDE8F083DEF8046006F1CC
:100270000804C3E70A207047782B0020582B002081
:100280002DE9F04FAF4C256FEF007E1BB6008BB011
:10029000A25D531E804604EB060BA146052B00F21F
:1002A000CF82DFE803F06748481E1E03002840F0B5
:1002B000D680DFF8ACE29EF80C30002B00F01783FC
:1002C0009EF800308EF80C00013B062B00F2B7823E
:1002D000DFE813F0E60297028E016E01B502A2027A
:1002E0007C02002840F0BC80C5EB070A04EB8A03BF
:1002F000029393F804A0BAF1010F00F03E83C0F01E
:100300002883BAF1020F41F61D5318BF0F2341F69F
:100310001D518B4200F0AA8019F8061006938B1E1F
:10032000012B40F2C480013A052A33D8DFE802F0FD
:1003300075907966592F7B1B04EB83038249B3F8D0
:1003400012A001EB0A1A002840F09B80BAF80800BE
:10035000DAF804101B7C01EB80010291062B00F2FD
:100360008A83DFE813F05D01A8018901F101DB0157
:10037000C901C60100287CD19BF80430032B00F290
:100380007C83DFE813F00801F100CE009E00052316
:100390008DF814306D4D05F1200655F8043F0BB172
:1003A00005A89847B542F8D1206F664DC0EBC00054
:1003B00004EB80001C220021FFF7E8F8636F43B1D3
:1003C0002A6F0132013B02F003026B672A67002BA0
:1003D00067D15F4A137823F0040313700BB0BDE8B4
:1003E000F08F7B1B04EB83030422DB88ADF8203005
:1003F00000238DF81420ADF82230CBE77B1B04EBF3
:1004000083030322D8881989DB680793ADF820009D
:10041000ADF822108DF81420BCE700238DF81430BD
:10042000B8E77B1B04EB830302211A7C1E899D889D
:10043000D868ADF82060A2F10603B3FA83F35B0934
:100440008DF82430ADF8225007908DF81410A1E7F4
:100450007B1B04EB8303012218899988D4E70622C9
:10046000012341F61D518B427FF456AF00230693C2
:1004700059E737490B78012223F001030B7013462B
:1004800045E7D888BAF80A30BAF8081000F1030E28
:100490001B1A033B7144AAF80A30AAF8081001237A
:1004A00035E70020FFF7ECFE0BB0BDE8F08F294BDD
:1004B0009BF81660186C596C3044891B1864596499
:1004C00031E7DFF8A080244AD8F8001023484FF025
:1004D000000A0223CDF800A001F044F8204B1A498D
:1004E0005B88D8F800E08BF804A01B01CA1801F85B
:1004F00003A05368B8F80410C8F800300223C2F80B
:1005000004E01181A8F8043000283FF467AF7B1B9A
:1005100014F823200E490B7823F001030B700E23EF
:10052000F5E6DFF840800D48D8F8001000230122DE
:1005300001F070F802220023A8F804208BF80430A0
:10054000E2E700BF882B0020582B0020082C002059
:10055000082C0020002B00209CB50200A8210020C0
:10056000782B0020002C0020DFF8E88298F800307B
:10057000022B00F07E8298F81030022B00F0678288
:10058000B04A137843F0020323F0010313700122F1
:1005900041F61D53BBE6AC4BAC4A1968AC4800238E
:1005A0000093022300F0DEFF01238BF80430ABE759
:1005B000A84BBEF80220DFF8B08203EB0212938949
:1005C000002B00F01782A04BA148196802229A80E4
:1005D0000522002388F80020012201F01BF80346C1
:1005E000002B3FF4FBAE1C2202FB05F2A25C93E65B
:1005F0009549DEF80420B1F804C00968538894488E
:1006000001EB8C014FF0000CCDF800C003334FF02C
:10061000030C9BB28EF800C000F0A4FF0346DFE796
:100620007B1B9B0004EB03080393002300930299B8
:100630008748012308F1040200F094FF022388F8A0
:10064000103000283FF4CAAE039B834AD25C0E23CD
:10065000781B04EB8000BAF80A10B0F806E0BAF88C
:1006600008000EF1030CCEEB010160440339AAF837
:100670000800AAF80A104AE6C5EB07084FEA8808FE
:1006800002997348002304EB080208310C320093EE
:10069000012300F067FF04EB08036F499A7D002AED
:1006A0000CBF012203221A7400283FF497AE11F800
:1006B00008200E23CCE7C5EB07084FEA880802990B
:1006C000634804EB08031A460023043102920093A6
:1006D0000832012300F046FF14F808200299032A8B
:1006E0000CBF052306230B7400283FF477AE0E23BE
:1006F000AEE741F61D53ABE7584B594A5968544889
:1007000000230093012300F02DFF002840F06B81AF
:100710007D1B04EB8504062323745FE67B1B4FEAF5
:10072000830804EB08024D4B92691A6018460022B8
:1007300005A95A60FFF7D8FC00287FF471AF464B3B
:1007400013F808200A23E2E5DFF820E1DEF844C0D0
:10075000BCF1000F00F02681DEF840103C485EF846
:100760003120C5EB070804EB88080EEBC10301310B
:100770000CF1FF3C01F00701CEF84010CEF844C068
:100780000299B8F814E0039301EB8E014FF0000ECC
:100790009B88CDF800E000F0E5FE039A98F816304B
:1007A000B8F814109288013B0A44DBB2A8F8142070
:1007B00088F8163013B9012388F8103000283FF468
:1007C0000DAE7A1B0E2314F8222041E71E4B1F4A60
:1007D00019681F4800230093CEF8043007238EF8D1
:1007E0000030022300F0BEFE0346F9E6164ADEF8AA
:1007F0000410938849880B440333022193808EF8B8
:100800000010FFF711FC0346002B3FF4E7AD1C225C
:1008100002FB05F2A25C7AE5BEF80230DFF8348014
:100820001B014344002206205968009202238EF8DF
:1008300000000C4A064800F095FE0346D0E606226A
:100840000F2364E5082C0020002C002094B5020042
:10085000A8210020582B0020882B00202C2C0020C1
:1008600090B502009CB50200782B0020002B0020E0
:10087000834BBEF808101A781B7CB2FA82F2B3FAE6
:1008800083F352095B0901318EF80A208EF80B3090
:1008900000220123AEF808108EF80C208EF80030EC
:1008A0009EF80A30774A43B175498B8900209072CF
:1008B0001BB98A7B002A40F0C4809EF80B30714A35
:1008C00043B16F4B998B0020D07219B99B7F002BDD
:1008D00040F0B6807A1B00238EF80030AEF802306C
:1008E000CEF8043014F8222041F61D530FE59EF88F
:1008F0000030072B3FF6E8AC01A252F823F000BF0E
:1009000071080200C9020200C9020200ED070200DC
:1009100029090200CD070200CD07020021090200CB
:1009200001238EF80030BBE7BEF80230DFF85081BB
:10093000554A1B0108EB03001168D0F804A0B2F877
:1009400004C041600221C2F800A0A0F808C0918054
:1009500067E7DB68CDF8188005A80DF11201CDF826
:100960001C800593FFF7C0FB00284DD10A237A1B9A
:1009700004EB82020221117132E6444B1B789B0783
:1009800013D402230822002141480293FEF7FEFD02
:10099000029B0A2B7FF438AF7A1B41F61D5314F8E3
:1009A0002220B4E4DCF80030FFDE0298384B063039
:1009B00005AA4146FFF704FC03460028E2D153464E
:1009C000344A0699CDF80080334800F0CBFD304A18
:1009D0002B4B928803EB021200280CBF43460E23D8
:1009E00082F80EA0D5E77B1B9B00E1180620E25C95
:1009F00008747CE651682848012200F00BFE0422AE
:100A0000034688F80020EBE5069902988B88C3809E
:100A1000B1F800E01F4ACDF800800123A0F808E0FB
:100A20001D4800F09FFD164BBDF8122003EB02128B
:100A300000284FF0010114BF0E230023917396E7A5
:100A40000123AEF80230FFF7EFFA0346DCE601239C
:100A50004FEA031A08EB0A03104A59680E480023AC
:100A60000093022300F07EFD4FF0000308F80A30E7
:100A70004AE50023ECE70F23EAE501224AE500BF3F
:100A8000582B0020782B0020002C0020082C002060
:100A9000502B002090B50200A82100209CB5020038
:100AA0000846FFF7EDBB00BF2DE9F04F0F894C68FA
:100AB00085B006463D46002F00F0AE80206810F05D
:100AC000030040F095809E4604E054F830309B07C8
:100AD00040F08E8001308742F7D17346002A00F043
:100AE0008B80B2F8009052880094BB466548DFF8CE
:100AF000A8C10768DCF87480032B07F101070760C1
:100B000003BF306803904FF0040A4FF0000AB8F1B9
:100B1000030F60D8DFF870E1DEF844000446C5F149
:100B200008008442019456D8DCF870000C8849888B
:100B3000029108EB000101F00301C1EBC101890042
:100B40000CEB01000CF80130C280039A826108F1BD
:100B500001080023BDF8081081804FF003020481D2
:100B6000C76080F810A0A0F8129080F816B08282BA
:100B70004381CCF87480E5B1DEF84020019C144438
:100B800004F00702009C0EEBC2020EF1380804EBE1
:100B9000C30103C9013302F1080C82E80300424596
:100BA00014BF624672469D423749F0D14B6C2B44CC
:100BB0004B6436B10023354A376073601289B372D3
:100BC000328133490B7803F0040202F0FF04002A5B
:100BD00041D0002009E02F4B03EB09190820B9F898
:100BE0000A30033B9A1AA9F80A2005B0BDE8F08F35
:100BF000032005B0BDE8F08F04EBC70EA0880834D1
:100C00000244A64592B2F9D1D01C80B240F2FD3424
:100C1000A04205D90920E8E7002A7FF462AF03204B
:100C20001C4C94F80090B9F1000F07D16789258911
:100C30003D440544ADB2B5F5806F21D3277C154DF9
:100C40003FB96F8B2D8B3D440544ADB2B5F5806F38
:100C500009D30720C9E743F0040320460B70FFF7D0
:100C60000FFB2046C1E74FF001094D4604EB051488
:100C700038446081B1F808B0486800905D4635E7B7
:100C80004D46F3E7482B0020002B0020782B002056
:100C9000082C0020582B0020882B0020074A1378AE
:100CA000082B09D010B4591C054C117044F82300CE
:100CB00000205DF8044B70470C2070474C2B00203F
:100CC0000C2C00202DE9F04FDFF8F8828DB098F859
:100CD000002000230893079309930A930B9393072B
:100CE0000DD5AF4C04F1200554F8043F07A803B11B
:100CF0009847A542F8D100200DB0BDE8F08F12F062
:100D00000107F8D142F0010288F8002000F0CEFB84
:100D1000A44BA54A1B681668039703F53F5A0AF1CE
:100D20003C0A03F1080903F580500197043BBB46D8
:100D30004FF6FF74CDF808A05A689C498A4203F127
:100D4000040526D003F5805202E0934200F00381AF
:100D500053F8041F0131F8D04FEA0B13944D0321CF
:100D60000BF1010BE9541FFA8BFB1346029A9A42CE
:100D700009F5805900F58050DED1002F40F0268122
:100D8000019B13F0FF0340F092800B200DB0BDE8F3
:100D9000F08F9A6887498A4234D001318A42D1D192
:100DA000039A002A6BD184490D604FF0020EA1F81E
:100DB00004E0DA6801324D4604D1EEE02A68B2F16F
:100DC000FF3F14D0AA88A24206D02A8822B1AA687E
:100DD000B24201D9164601276A880332964405EBD0
:100DE00082051FFA8EFEA842A1F804E0E6D8BEF103
:100DF000020F14BF0822042201991143019103F547
:100E00008052B2E76A4A4FEA0B1C02EB0C0E4FF01D
:100E1000000A02F80CA00221CEF80450AEF8081027
:100E2000DD6801354A4612D11AE09568B54201D90C
:100E30002E46012755880335294402EB850289B2E5
:100E40009042AEF808100BD91568013508D0958886
:100E5000A54202D01588002DE7D14FF0010AE9E73D
:100E6000534A9444019A8CF80EA042F002020BF10E
:100E7000010B01921FFA8BFB03F5805275E74C4A78
:100E80004FEA0B1102EB010C4B4A12680492484ADC
:100E90004FF0020E02F801E00BF1010B049A4649F3
:100EA000CCF804201FFA8BFBACF808E07CE7062B9B
:100EB0000AD0013B0A2B1CD8DFE803F0191B191BD1
:100EC000471B471B444A440098F80030344C43F019
:100ED000020323F0010388F8003004F1200554F8E0
:100EE000043F07A803B19847A542F8D103E70023C0
:100EF0000593324A516F032912D8314B5B6C082B92
:100F00000ED8136F0B4403F00303C3EBC3039B0022
:100F1000D0180124D45401319DF814300371516765
:100F200098F80030274903F0040202F0FF04002A79
:100F30007FF4E1AE43F0040320460B70FFF7A0F905
:100F40002046D9E603230593D3E701230593D0E791
:100F500002230593CDE7184B1B68BBB114494FEA38
:100F60000B1301EB030E1849CEF80450104DA1F8F5
:100F700002B002210BF1010CE9541FFA8CFBAEF810
:100F80000810019B43F001030193EEE60A49022396
:100F90008B8001230D600393F3E704222CE700BF4D
:100FA000082C0020A8210020482B0020DEC0ADDE48
:100FB000582B0020FE011EF1002C0020882B002061
:100FC000002B0020082C0020782B0020014B1E60F5
:100FD000D6E600BF482B002060B159B130B583B0D0
:100FE0000C460DF106010546FFF77EF820B90A20F0
:100FF00003B030BD05207047BDF80620074B686878
:1010000003EB021301219A890A449A8120606B68DC
:1010100000200C336360A97203B030BD582B002050
:1010200050B110B582B00DF106010446FFF75CF82F
:1010300020B90A2002B010BD05207047BDF8062077
:10104000084B03EB02139A8912B9062002B010BDB7
:10105000A17A0029F9D00021013A9A810846A172AB
:10106000E8E700BF582B00201E4B1B789B0702D4DB
:1010700002231846704740B1CB1C9BB240F2FD32B0
:10108000934205D90923184670470523184670472F
:1010900070B4154A167896B95489158925441D44AB
:1010A000ADB2B5F5806F0AD2354602EB0512234486
:1010B0005381068041800023184670BC7047147C21
:1010C000094D54B96C8B2D8B25441D44ADB2B5F53B
:1010D000806F02D201263546E7E70723184670BC29
:1010E000704700BF082C0020582B0020124B1B78A3
:1010F0009B0702D4022318467047C8B10388022B0D
:1011000002D904231846704710B40C49448801EBF7
:1011100003135A89111B03290CD4033A0021121B13
:101120005A810B460180418018465DF8044B704798
:101130000523E0E70423F7E7082C0020582B0020C4
:101140000D4B1B789B0701D40220704759B110B496
:101150000C884FF6FF739C4201D04B882BB90420BA
:101160005DF8044B704705207047022300225DF8AC
:10117000044BFFF799BC00BF082C00203AB130B4F3
:101180000C4C2478A30704D4022030BC70470520FF
:10119000704769B10D884FF6FF74A54201D04B88A6
:1011A00013B9042030BC7047022330BCFFF77CBC6D
:1011B0000520EAE7082C002028B10E4A1278930790
:1011C00003D402207047052070470029FBD010B4DB
:1011D0000C884FF6FF72944201D04B881BB9042053
:1011E0005DF8044B7047032300225DF8044BFFF7C2
:1011F0005BBC00BF082C0020F8B51A4A1378990789
:1012000001D40220F8BD4FF6FF7188421DD0164D63
:101210006C6F032C1BD81549496C082917D8296F06
:10122000214401F00301C1EBC10189006F18661C64
:1012300005246C54012403F004013C71F88001F092
:10124000FF046E6729B10020F8BD0420F8BD082016
:10125000F8BD43F0040320461370FFF711F8204651
:10126000F8BD00BF082C0020882B0020002B002098
:10127000F8B5174A1378990701D40220F8BD15482C
:10128000416F03291AD8144C646C082C16D8046FCB
:10129000124D0C4404F00304C4EBC4042E78013155
:1012A000062700F8247041670EB10121297303F06D
:1012B000040101F0FF0419B10020F8BD0820F8BDB9
:1012C00043F0040320461370FEF7DAFF2046F8BD12
:1012D000082C0020882B0020002B0020782B0020D9
:1012E00010B50C4C82B0ADF806002078ADF80410B3
:1012F000810702D4022002B010BD3AB133B101A976
:101300000DF10600FEF75CFF02B010BD052002B033
:1013100010BD00BF082C002000B50D4B83B0ADF808
:1013200006001878830703D4022003B05DF804FB9D
:1013300051B14AB1134600200A460DF10601FEF7ED
:101340003FFF03B05DF804FB052003B05DF804FB2C
:10135000082C002000B50D4B83B0ADF806001878BE
:10136000830703D4022003B05DF804FB51B14AB1F6
:1013700013460DF106000A460021FEF721FF03B0D7
:101380005DF804FB052003B05DF804FB082C002089
:1013900020B119B103680B60002070470520704729
:1013A00029DF704728DF704770B50C4D696E04293E
:1013B00011D02B6E0B44032B88BF043B182202FB79
:1013C000035406464B1C204600216B66FEF7DEF8F0
:1013D0003460012070BD002070BD00BF3C2C002097
:1013E00070B5304C636E84B07BB1256E6E0073199E
:1013F00004EBC3031A7A012A09D0022A26D198895C
:10140000FFF7D0FF112818D000BB04B070BD7019D1
:101410009A8ADB8A04EBC000D21AC1680069B2F56F
:10142000806F4FEA8303B4BF92B24FF480621944D5
:101430001844FFF7B5FF1128E6D11B4A137823F0B3
:10144000020343F00403137004B070BD1022684619
:101450000021FEF79BF8731904EBC3031A7A012AE3
:1014600017D0022A09D19A89DB89ADF80A20D21A4D
:101470000123ADF808208DF800303544ED006219E5
:1014800063595268019268469B680921984704B0E5
:1014900070BD1A699B8A029200218DF80010ADF888
:1014A0000C30EAE73C2C0020382C00202DE9F043DA
:1014B0004FF010235D696B1C49D0DFF8A48098F8C9
:1014C00000C01CF0010F3FD1DFF890E02248CEEBC6
:1014D0000000000934D00EEB0011734607461A686D
:1014E00012B15A6802B1013F10338B42F7D13FB3BA
:1014F00000260022194B9146F4B206E0596839B132
:101500000132904203F110030ED019680029F5D181
:10151000597B494588BFD4B202F1010288BF894690
:10152000904203F11003F0D1240104EB0E030136C5
:101530001A7B5D60B742A5EB023544F80E50D8D156
:101540004CF0010C88F800C00020BDE8F0834FF09B
:1015500080535D692D03B0E7B8210020A821002049
:10156000382C00202DE9F041274C2578EE0782B079
:1015700012D510B1254DA84203D2022002B0BDE819
:10158000F081234DA842F8D252B149B142EA010597
:10159000AD0707D00620F1E7012002B0BDE8F081D9
:1015A0000320EBE70568A94201D20520E6E746687B
:1015B00001EB8305AE42F8D30BB90420DEE7804689
:1015C00001A81E4615460F46FFF7EEFE08B9072094
:1015D000D4E701992378C1F80080019A08984860FF
:1015E00013F006044FF00101D56017619682117265
:1015F000054A01D00020C1E743F002031370FFF752
:10160000EFFE2046BAE700BF382C0020A8210020BA
:10161000B82100202DE9F041244C2578ED0782B057
:1016200010D510B1224DA84203D2022002B0BDE86D
:10163000F081204DA842F8D241B1C1F30B053DB174
:101640000620F3E7012002B0BDE8F0810320EDE7BA
:101650000568A94201D20520E8E7466801EB02359A
:10166000AE42F8D30AB90420E0E7804601A81E463E
:1016700015460F46FFF798FE08B90720D6E70199EF
:101680002378C1F80080019A4E600220390B13F0D4
:101690000604918115821072044A01D00020C5E72A
:1016A00003431370FFF79CFE2046BFE7382C002051
:1016B000A8210020B821002020B1034B5B6E0360FD
:1016C00000207047032070473C2C00202DE9F04794
:1016D000DFF8B082A94C98F80030266E990784B0E4
:1016E00079D5022800F0B680032840F0AF80A44DE1
:1016F0002B780133DBB2032B2B7040F2A78000273D
:1017000010222F70394668467500FDF73FFFAB1970
:1017100004EBC303E9461A7A012A00F0E180022AA9
:1017200009D19A89DB89ADF80A20D21A0123ADF8D4
:1017300008208DF800303544ED0062196359526875
:1017400001929B688D4F484608219847636E013B84
:101750006366002B40F0FD803A6E98F8001001326D
:1017600021F00201042A88F800103A6630D10026E0
:1017700026666BB37500AB1904EBC303AA1904EB1F
:10178000C202117A01293DD002297FD01022684679
:101790000021FDF7FBFEAB1904EBC303E9461A7AFF
:1017A000012A7ED0022A09D19A89DB89ADF80A2064
:1017B000D21A0123ADF808208DF800303544ED0031
:1017C000621963595268019248469B6809219847FB
:1017D00004B0BDE8F0875A0738D5626E03F0FB030A
:1017E00088F80030002AF3D0750043F00203AA19EC
:1017F00088F8003004EBC203AA1904EBC202117A84
:101800000129C1D1D38AAA1904EBC202A819928A6C
:1018100004EBC000D21AC1680069B2F5806F4FEACC
:101820008303B4BF92B24FF4806219441844FFF7A7
:10183000B7FD11282FD198F8003023F0020343F0B0
:10184000040388F8003004B0BDE8F087636E002B15
:1018500090D1BDE77500AB1904EBC307484A3B7A4A
:101860004FF0000A012B82F800A023D0022BEDD10B
:10187000FB89BA89398A01339BB201329942FB81D3
:10188000BA8155D0636E002BA2D03B469889FFF7F2
:1018900089FD1128CFD000287FF478AF04B0BDE8CF
:1018A000F0871A699B8A029200218DF80010ADF82A
:1018B0000C3083E7FB8AB88AC21AB2F5806FB4BFD6
:1018C00092B24FF480621344A9199BB204EBC10792
:1018D0009842FB82294A0BD0526E002A93D177E7B7
:1018E0001A699B8A8DF800700292ADF80C3022E7DD
:1018F000684610220021FDF749FE3B7A012BE9469C
:1019000032D0022B09D1FA89BB89ADF80A309B1A73
:101910000122ADF808308DF80020AB19DB00E21889
:10192000E3585268019248469B68144F00210CE727
:10193000684610225146FDF729FE3B7A012BE94605
:10194000DFD13A69BB8A8DF800A00292ADF80C3065
:10195000E3E73E6E0136042E3E663FF408AF7500A5
:10196000AB1907EBC30309E73A69BB8AADF80C3042
:1019700000218DF800100292CFE700BF3C2C002020
:10198000A42C0020382C0020C30710D4810710D4C9
:10199000420710D4030710D4C10610D4820610D415
:1019A000430610D4C30910D14FF6FF7070470020D2
:1019B00070470120704702207047032070470420C1
:1019C000704705207047062070470720704700BF0A
:1019D000E8B1E1B110B4048894422AD0448894421A
:1019E00029D08488944228D0C488944227D004897E
:1019F000944226D04489944225D08489944207D0C9
:101A0000C089904208BF072403D05DF8044B70479B
:101A1000062433B10878012202FA04F303430B7061
:101A2000F3E70A78012000FA04F322EA03030B70BB
:101A3000EBE70024EDE70124EBE70224E9E70324C8
:101A4000E7E70424E5E70524E3E700BF2DE9F043D9
:101A50009DF81C4008B301B3FAB105889D4200F01F
:101A6000E48045889D4200F0E68085889D4200F034
:101A7000E480C5889D4200F0E28005899D4200F027
:101A8000E08045899D4200F0DE8085899D4206D038
:101A9000C089984208BF072002D0BDE8F083062025
:101AA00001238340484200F003009042DBB228BF8C
:101AB0001046002C5BD1042A00F2AF8010460D784E
:101AC000DC43E4B2254001280D7000F0B2804D786F
:101AD000022805EA04054D7000F0AB808D780428DB
:101AE00005EA04058D7040F0B480CD782C40CC70B0
:101AF00004468242D1D0C0EB020EAEF10406551E60
:101B0000B6082D1A0136022D4FEA860C1AD9002587
:101B100063F3070563F30F2563F31745084463F385
:101B20001F65ED43A0F104094FF0000859F8047F48
:101B300008F101082F40B04540F8047BF6D3E64594
:101B40006444AAD00D5DDB43D8B200EA0503651CEE
:101B5000AA420B55A1D94E5DA31C9A4200EA060485
:101B60004C5578D9CA5C1040C854BDE8F083042AAB
:101B700057D810460C78012844EA03040C7056D05C
:101B80004C78022844EA03044C7050D08C78042826
:101B900044EA03048C705AD1CC781C43CC700546BF
:101BA000824252D0C0EB020EAEF10406541EB608BB
:101BB000241A0136022C4FEA86081AD94FF0000C7D
:101BC00063F3070C63F30F2C084463F3174C63F3C0
:101BD0001F6CA0F10409002759F8044F01374CEAA3
:101BE0000404B74240F8044BF6D3C64545443FF4DD
:101BF00054AF485D6C1C1843A24248557FF64DAF68
:101C00000E5DA81C824243EA06050D557FF645AFDE
:101C10000A5C13430B54BDE8F08300283FF46BAF1C
:101C20004DE705460028BDD0A4E7002038E705466B
:101C3000B6E704465DE7012032E7022030E70320E3
:101C40002EE704202CE705202AE7BDE8F0830325D2
:101C5000A6E703244DE7BDE8F08300BFD0B10388B9
:101C600093421ED0438893421DD0838893421CD058
:101C7000C38893421BD0038993421AD0438993426D
:101C800019D08389934206D0C389934208BF0720A5
:101C900002D000207047062041FA00F000F0010059
:101CA00070470020F8E70120F6E70220F4E7032060
:101CB000F2E70420F0E70520EEE700BF00293AD064
:101CC00012F0010330B402D00B8883800123950702
:101CD00004D500EB43044D88A5800133540704D597
:101CE00000EB43048D88A5800133150704D500EB74
:101CF0004304CD88A5800133D40604D500EB43040A
:101D00000D89A5800133950604D500EB43044D8968
:101D1000A5800133540604D500EB43048D89A580CA
:101D20000133D20904D000EB4302C9899180013309
:101D3000036030BC70470160704700BF10B51A4B9C
:101D40001A6882B0A2B100221A601B6800934FF09B
:101D500080430122154C0099C3F80823A3686270E0
:101D600033B10CCB0020A2609847A368002BF8D1B8
:101D70000F4B1A68AAB100221A601B6801934FF03A
:101D800080430222094C0199C3F8082323690122E8
:101D9000A27033B10CCB0120226198472369002B3C
:101DA000F8D102B010BD00BF00010040A82C0020F7
:101DB0000401004058B910B5054CA36833B10CCBF1
:101DC0000020A2609847A368002BF8D110BD70478F
:101DD000A82C002010B582B002A80023114C00F8F6
:101DE000013DFEF7E1F823788BB9184606216360C0
:101DF000A3602361E36000F017F801F0D1FC20B983
:101E00004FF080430122C3F8182501232370E368B3
:101E10009DF8070001330122E360A270FEF7ECF8A1
:101E200002B010BDA82C0020002810B418DB00F16F
:101E3000604303F561434901C9B283F80013C3B29B
:101E40004009800000F1604000F5614003F01F028E
:101E500001239340C0F8803103605DF8044B704764
:101E6000C3B2044A03F00F0449012244C9B21176F7
:101E7000E6E700BFFCEC00E030B51D4C94F8545090
:101E800083B015B1082003B030BD06214FF0FF33F9
:101E90000846FF2223636363A363E36323646364ED
:101EA000A364E36423606360A360E3602361636110
:101EB000A361E361236284F850306362A36284F813
:101EC0005230E36284F8533084F85120FFF7ACFFBE
:101ED000084B094A1D601B68019301984FF00043AD
:101EE0000121284684F85410C2F8043303B030BDF1
:101EF000BC2C00207C61004000600040034B93F844
:101F00005400003018BF0120704700BFBC2C0020D7
:101F1000F0B5634C251895F93030002B01DB082013
:101F2000F0BD91F803E09446BEF1000F56D023684F
:101F3000013300F0A580002508266B1C584F54F88B
:101F40002320013251D0AB1C9E4245D957F82320A3
:101F500001324AD0EB1C9E423ED957F82320013271
:101F600043D02B1D9E4237D957F8232001323CD055
:101F70006B1D9E4230D957F82370013735D0AB1D09
:101F80009E4229D954F82320454F01322DD0EB1D14
:101F90009E4221D957F82320013226D005F10803AB
:101FA0009E4219D957F8232001321ED005F10903AA
:101FB0009E4211D957F82320013216D005F10A03A9
:101FC0009E4209D957F8237001370ED00B35AE4227
:101FD00002D9E36A013307D00420F0BD236A01333C
:101FE00055D008250C26A8E70B232618DDB244F8A7
:101FF00023C086F83050BEF1000F02D1234483F88D
:1020000048008B78ABB94A784FF0A04600F5E073F2
:10201000920046F82320CB78ABB96AB2083A144450
:10202000097894F8502042EA811284F8502018462A
:10203000F0BD830003F1A043D3F8002722F0020291
:10204000C3F80027E7E76BB29B0003F1804303F579
:10205000C0430A78D3F8101521F4473121F44071B8
:10206000C3F810151204000202F44031D3F81045F1
:1020700000F4F8520A432243C3F810250020F0BDB3
:10208000002385F83030C4F800C01D46B9E70826A3
:1020900085F830603346C4F820C03546AEE700BF4F
:1020A000BC2C0020F0B42E4C251882B095F83020BE
:1020B00053B2072B1CDD234493F848309B09032BB4
:1020C00041D0012B14BF4FF440334FF40033800054
:1020D00000F1A040D0F8002722F44032C0F80027D9
:1020E000D0F800271343C0F8003702B0F0BC7047A7
:1020F000072AFAD8980000F1804003F1400200F569
:10210000C040920092B2D0F8106502F1804202F510
:10211000C04246F001060027C0F81065176012683B
:102120000192019A0029E0D095F9302054F822203C
:10213000002ADAD001220B4902FA03F3C1F8043372
:1021400002B0F0BC70474FF0A0420123D2F8102536
:10215000834013420CBF4FF400334FF44033B6E7D3
:10216000BC2C0020006000404FF0A043D3F8103595
:1021700023FA00F000F00100704700BF2DE9F0479E
:10218000C44B1A68012A82B000F0D2810027C24BEA
:102190001A68012A00F0BE81C04B1A68012A00F0BB
:1021A000AB81BF4B1A68012A00F09881BD4B1A68B9
:1021B000012A00F08581BC4B1A68012A00F05C817D
:1021C000BA4B1A68012A00F04981B94B1A68012AF2
:1021D00000F03681B74B1A68012A00F025810026ED
:1021E00017F0FF0F1BD0DFF8D08201250024A300D9
:1021F00003F180432F4203F5C0434FEA45050BD05E
:10220000D3F8100558F82420D3F81015C0F3042093
:10221000C1F3014102B190470134082CE7D1002FEE
:1022200002DB02B0BDE8F087A34D95F85010FF29FE
:102230004FF0FF3A2F464FF000094FF0010800F031
:10224000A980C9B221F0C0002AFA00F414F00104F8
:102250001BD03B18890993F9303057F82330002BF5
:1022600000F0CB80032908FA00F400F0CB80820054
:1022700002F1A0423440D2F800E7CEF3014E40F024
:10228000A980BEF1030F00F07A8195F85110FF2963
:1022900022D0C9B221F0C0002AFA00F3DA071BD518
:1022A0003B18890993F9303057F82330002B00F0A0
:1022B000B380032908FA00FC00F0B380820002F129
:1022C000A04216EA0C0FD2F800E7CEF3014E63D11C
:1022D000BEF1030F00F07A8195F85210FF2922D049
:1022E000C9B221F0C0002AFA00F3DB071BD53B1866
:1022F000890993F9303057F82330002B00F085809E
:10230000032908FA00FC00F08480820002F1A04258
:1023100016EA0C0FD2F800E7CEF3014E46D1BEF11B
:10232000030F00F03F8195F85310FF2921D0C9B267
:1023300021F0C0002AFA00FA1AF0010F19D03B1858
:10234000890993F9303057F82320002A4ED0032909
:1023500008FA00FC4ED0830003F1A04316EA0C0FEC
:10236000D3F800E7CEF3014E2AD1BEF1030F00F0FF
:10237000EF80002C3FF455AF4FF0A043D3F8103559
:102380009E423FF44EAF95F85010FF291E46CA46B4
:102390007FF457AF002478E7BEF1020F9CD10329E8
:1023A00000F02B81002B97D0984795E7BEF1020FE4
:1023B000B9D1032900F01E81002BB4D09847B2E7B1
:1023C000BEF1020FD5D1032900F01A81002AD0D026
:1023D0009047CEE7BEF1020FDCD1032900F0138154
:1023E0000024002B3FF451AF98474EE70329C0D19A
:1023F00008FA00FC49EA0C09ADE7032940F0A68081
:1024000008FA00F449EA040931E703298BD108FAF4
:1024100000FC49EA0C0978E703297FF45DAF08FA6C
:1024200000FC49EA0C0949E700221A601B68019385
:102430004FF0A043019AD3F8106547F00047CFE66C
:102440001E4AD2F8042311067FF5C4AE00221A609A
:102450001B680093009B47F08007BBE6174AD2F841
:10246000042350067FF5B1AE00221A601B6800936A
:10247000009B47F04007A8E6104AD2F804239406D0
:102480007FF59EAE00221A601B680093009B47F008
:10249000200795E6006100400461004008610040AB
:1024A0000C61004010610040146100401861004060
:1024B0001C6100407C610040BC2C0020006000409A
:1024C000524AD2F80423D5067FF575AE00221A6071
:1024D0001B680093009B47F010076CE64B4AD2F84C
:1024E000042316077FF562AE00221A601B68009372
:1024F000009B47F0080759E6444AD2F804235207E4
:102500007FF54FAE00221A601B680093009B47F0D6
:10251000040746E63D4AD2F8042391077FF53CAE16
:1025200000221A601B680093009B47F0020733E605
:102530003649D1F8041311F001073FF428AE002109
:1025400019601B6800931746009B20E61C469CE61A
:1025500003297FF43BAF4FF4003ED3F800C72CF4BF
:10256000403CC3F800C7D3F800C74CEA0E0EC3F8CE
:1025700000E7002A3FF400AF0134E4B228E7032962
:102580007FF42FAF4FF40034D2F800E72EF4403E32
:10259000C2F800E7D2F800E74EEA0404C2F80047A8
:1025A00001241EE703297FF407AF4FF4003ED2F861
:1025B00000C72CF4403CC2F800C7D2F800C7013471
:1025C0004CEA0E0EE4B2C2F800E7F5E603297FF408
:1025D000E9AE4FF4003ED2F800C72CF4403CC2F8FC
:1025E00000C7D2F800C701344CEA0E0EE4B2C2F8BC
:1025F00000E7D7E64FF4403ED9E74FF4403EEAE724
:102600004FF4403EA9E74FF44034BDE7006000407E
:102610002DE9F84F244B1A788AB3DFF890B0DFF831
:102620009090DFF890A00024012703E00134E4B289
:10263000944224D226B2D9F80050DBF8003015F8C5
:10264000360007FA00FE1EEA030F05EBC608EDD0C0
:10265000164A23EA0E031360FFF786FD15F836507D
:10266000DAF8003007FA05F6334000FA05F6B3420F
:1026700007D00D4B01341A78E4B29442DAD3BDE8A6
:10268000F88FD8F80430002BF3D098F80110A1F19E
:102690000101B1FA81F14909091AB1FA81F1490937
:1026A00028469847E5E700BF1C2D0020442D002058
:1026B000182D0020402D002070B50646114808F066
:1026C00047FA40B9104D01242B68B4401C4203D096
:1026D00023EA04042C6070BD3046FFF745FD0B4A29
:1026E000136860B123432E680949136034432C609A
:1026F000044809680022BDE8704008F0D1B923EA17
:102700000403F0E7202D0020442D0020402D002060
:10271000142D0020042A01D8072070472DE9F0412C
:1027200082B0884605461746FFF7E8FB002834D0FC
:102730001C4C1D481D491E4A1E4B2560002608F1F1
:10274000FF340F6080F8008016601E60E4B203273B
:10275000B8F1000F03D11AE0DBB2C4B11C4623B2BA
:1027600005EBC30215F833009378134A8DF8053052
:1027700001A98DF804708DF806608DF80760FFF7E9
:10278000C7FB631E0028E7D002B0BDE8F0810B4A0A
:102790000B48002108F072F9F6E7FFF76DFB0028FF
:1027A000C6D0F1E7182D00201C2D0020142D00208C
:1027B000402D0020442D0020B926020011260200E1
:1027C000A4B5020070B5084D2B785BB1074E00240C
:1027D0003368012113F83400FFF764FC2B780134CF
:1027E000A342F5D8002070BD1C2D0020182D00201C
:1027F0004FF0A042D2F80435D94301F4002103F48C
:102800000023C2F80815C2F80C3570470D282DE9D1
:10281000F04707D00E2838D00F2838D0102838D0ED
:10282000BDE8F08700250129044611D020D30229F4
:10283000F6D1214B05EB45051D446E78002EEFD0F7
:102840001E4B1B68002BEBD03046BDE8F047184705
:10285000DFF864806F007B1908EB030218F803604F
:102860005378C3B92F444744154BBA785A55E5E716
:10287000144808F06DF91049114A05EB45030B4463
:10288000565D9B789E42CBD1D8E70125CBE7022548
:10289000C9E70325C7E70C4BDFF8309019680948F2
:1028A00001EB810149004A4608F0FAF80028D9D125
:1028B00089F80040D6E700BFC42D0020782D002005
:1028C000C02D00207C2D00206C2D0020742D0020B8
:1028D000C94B1B68DB0700D4704770B5C74B1C7829
:1028E000172C22D8DFE814F0680075007500AE00E0
:1028F000D500F5001A013D013900220039002200FF
:102900001800500150015001500150014E00580074
:102910009E007801180018004FF0A0434FF4F0110A
:102920000022C3F80C15C3F8082570BD4FF0A04273
:10293000B34CD2F80435B348D94301F4802103F4F1
:102940008023C2F80815C2F80C352168002201EB7B
:102950008101BDE8704008F0A3B84FF0A042A84C38
:10296000D2F80435A748D94301F4802103F4802329
:10297000C2F80815C2F80C3521680022BDE8704085
:1029800008F08EB84FF0A0434FF4F0110022C3F8C6
:102990000815C3F80C2570BD4FF0A04300224FF47A
:1029A000E0104FF40031C3F80805C3F80C25C3F854
:1029B0000C15C3F8082570BD934B1B684FF0A0425F
:1029C000DB4303F4F0130021C2F80835C2F80C15FC
:1029D00070BD8D4A12684FF0A040D24302F4E0125D
:1029E0000025C0F80825C0F80C55D0F8042582F45D
:1029F000F01212F4003200F03881022C4FF4003251
:102A0000C0F8082514BF28211221C0F80C557C4AB3
:102A10001C7012687B4802FB01F1BDE87040002287
:102A200008F03EB84FF0A04300224FF4D0104FF40E
:102A30008021C3F80805C3F80C25C3F80C15C3F8AA
:102A4000082570BD704A12684FF0A040D24302F4CE
:102A5000E0120024C0F80825C0F80C45D0F8042581
:102A600082F4F01212F4003200F0F7804FF40032DA
:102A7000C0F808250821C0F80C45614A6148126871
:102A800003241C7002FB01F1BDE87040002208F035
:102A900007B85D4A12684FF0A040D24302F4E0123A
:102AA0000024C0F80825C0F80C45D0F8042582F4AD
:102AB000F01212F4003200F0C1804FF40032C0F87E
:102AC00008252821C0F80C454D4A4E4812680424B8
:102AD000D7E74D4A12684FF0A041D24302F4E0120A
:102AE0000020C1F80825C1F80C05D1F8042582F4AE
:102AF000F01212F4003200F0A9804FF40032C1F855
:102B00000825C1F80C053E4A3E48116805241C7092
:102B100049000022BDE8704007F0C2BF3A4A12687F
:102B20004FF0A041D24302F4E0120020C1F8082582
:102B3000C1F80C05D1F8042582F4F01212F4003229
:102B400075D04FF40032C1F80825C1F80C052C4AA5
:102B50002C48116806241C700022BDE8704007F064
:102B60009FBF294B1B684FF0A042DB43002103F4B9
:102B7000E0134FF40030C2F80835C2F80C15C2F863
:102B80000C05C2F8081570BD204807F0E1FFD4F12C
:102B9000110402463ED000283CD11B4E4FF40023C6
:102BA000012C336010D0C825194B15491748096806
:102BB00005FB04F4A3FB04435B0901FB03F107F0ED
:102BC0006FFF336803F4F0134FF0A0420021C2F806
:102BD0000C35C2F8081570BD4FF0A04300224FF429
:102BE000C0104FF4C021C3F80805C3F80C25C3F882
:102BF0000C15C3F8082570BD702D00209C2D0020F9
:102C00006C2D0020482D0020682D0020A02D0020D4
:102C10001F85EB511A4A13684FF0A040002103F4BE
:102C2000F013C0F80835C0F80C15116070BD4FF4F2
:102C30000030C1F80C05C1F8082588E74FF40031D1
:102C4000C0F80C150421C0F808253DE74FF400300A
:102C5000C1F80C05C1F8082555E74FF40031C0F85C
:102C60000C150221C0F8082507E74FF40031022CAB
:102C7000C0F80C1514BF04210221C0F80825C6E6CF
:102C8000682D002003780D2B15D00E2B15D00F2B9F
:102C900004D0102B08BF032301D070470223084A39
:102CA00003EB4303134458780028F6D0054B1B6808
:102CB000002BF2D018470023F1E70123EFE700BF14
:102CC000C42D0020782D0020032803D900230B7089
:102CD00000207047074A4FF0A04352F82000D3F875
:102CE000102501238340934314BF012300230B705D
:102CF00000207047ACB5020070B5BF4B1A6812F0E7
:102D0000010201D1104670BD0346172800F2EB8185
:102D1000DFE810F03901490149017C00A400CC0032
:102D2000F20058002F0018002F00180017017C0136
:102D30007C017C017C017C01A50125012F0144005F
:102D40006F006F004FF0A042AC4CD2F80435AC4895
:102D5000D94301F4802103F48023C2F80815C2F896
:102D60000C352168002201EB8101BDE8704007F0BD
:102D700097BE4FF0A042A14CD2F80435A048D943E9
:102D800001F4802103F48023C2F80815C2F80C3541
:102D900021680022BDE8704007F082BE99484FF0DC
:102DA000A0434FF4C01200214FF4C0251524C3F8EE
:102DB0000825C3F80C150A46C3F80C55C3F80815C6
:102DC00004709FE7904B8F4C1B684FF0A041DB4392
:102DD000002003F4E0134FF400360725C1F808354E
:102DE0000246C1F80C05C1F80C65C1F8080525704C
:102DF00088E74FF0A041834C4FF4F0120020C1F857
:102E00000C25C1F80805024623707BE77E4B1B6842
:102E10004FF0A042DB4303F4E0130020C2F8083572
:102E2000C2F80C05D2F8043583F4F01313F4003320
:102E300000F042814FF40033C2F808350821C2F88F
:102E40000C056E4A6F4B12686D4803241C7002FB20
:102E500001F1BDE87040002207F022BE6A4B1B68FA
:102E60004FF0A042DB4303F4E0130020C2F8083522
:102E7000C2F80C05D2F8043583F4F01313F40033D0
:102E800000F022814FF40033C2F808352821C2F83F
:102E90000C055A4A5B4B1268594804241C7002FB0B
:102EA00001F1BDE87040002207F0FABD564B1B68E7
:102EB0004FF0A042DB4303F4E0130021C2F80835D1
:102EC000C2F80C15D2F8043583F4F01313F4003370
:102ED00000F002814FF40033C2F80835C2F80C1537
:102EE000464A484B1168464805241C704900002298
:102EF000BDE8704007F0D4BD434B1B684FF0A042C3
:102F0000DB4303F4E0130021C2F80835C2F80C15C6
:102F1000D2F8043583F4F01313F4003300F0BA80D0
:102F20004FF40033C2F80835C2F80C15354B334A5C
:102F30003348116806241C700022BDE8704007F079
:102F4000AFBD4FF0A0432F484FF4F01200210C24E6
:102F5000C3F80C25C3F808150A460470D2E64FF0F2
:102F6000A04328484FF4E01200214FF40035132409
:102F70001DE74FF0A04323484FF4D01200214FF437
:102F80008025142413E7204B1E4C1B684FF0A040F3
:102F9000DB43002103F4F013C0F808350A46C0F8FB
:102FA0000C152170AEE6184A12684FF0A040D243CB
:102FB00002F4E0120024C0F80825C0F80C45D0F84F
:102FC000042582F4F01212F400326AD0022B4FF47E
:102FD0000032C0F8082514BF28211221C0F80C4582
:102FE000064A084C1268237002FB01F104480022D3
:102FF000BDE8704007F054BD702D00206C2D0020FE
:10300000482D00209C2D0020682D002004463748C4
:1030100007F09EFDD4F1110302462ED068BB344D5B
:103020004FF40021012B296011D0C824314E3249C0
:103030002E48096804FB03F3A6FB03435B0901FB6D
:1030400003F107F02DFD2968024601F4F0114FF05D
:10305000A0430020C3F80C15C3F8080552E64FF052
:10306000A04326484FF4F01200211224C3F808258B
:10307000C3F80C150A46047044E61D490B684FF06E
:10308000A044002003F4F013C4F80835C4F80C057C
:10309000086037E64FF40031C2F80C15C2F8083565
:1030A00044E74FF40031022BC0F80C1514BF042183
:1030B0000221C0F8082593E74FF40031C2F80C153F
:1030C0000221C2F80835BCE64FF40031C2F80C15F5
:1030D0000421C2F80835DCE64FF40031C2F80C15C3
:1030E000C2F80835FCE600220CE600BFA02D002047
:1030F000682D00201F85EB516C2D00209C2D002099
:10310000F8B5224D224E234B2860044610F00200F1
:1031100031601A6011D0204B20484A080E270D213B
:103120000F2610251970DF7004219E715D72FFF764
:10313000F1FAF8B1E30702D4F8BDE2070CD54FF07D
:10314000A0434FF4F0120021C3F80825C3F80C1572
:10315000C3F818250028EFD1114A1248002107F0C2
:103160008DFC0028E8D1104A10480121BDE8F84044
:1031700007F084BCFFF726FB0028DBD101460C4A90
:103180000C4807F07BFCE107E4D5D8E7702D002060
:103190006C2D0020782D0020C42D0020C0B5020029
:1031A000D1280200BCB50200F1270200E0B5020000
:1031B000852C0200A8B50200032801D9072070471A
:1031C000012A12D0012917D008D30229F6D10D4BBC
:1031D00000EB4000034400205A707047094B00EB9D
:1031E0004000034400209A707047012901D000225A
:1031F000E8E700F10D02D2B200EB400301490020E4
:10320000CA547047C42D002070B41D4D1D4CD5F814
:1032100000371D491D4A10F0010F14BF4FF440360E
:10322000002623F440333343C5F80037D4F8003781
:1032300010F0020F14BF4FF44035002523F4403343
:103240002B43C4F80037D1F8003710F0040F14BF37
:103250004FF44034002423F440332343C1F80037B3
:10326000D2F8003710F0080F23F4403314BF4FF4A6
:10327000403100210B43C2F80037002070BC70477A
:1032800034000050380000503C0000504000005016
:1032900008B50320FFF7B8FF10B1062808BF0020CB
:1032A00008BD00BF10B50388102B08D0112B05D125
:1032B000264B18680138186038B110BD10BD234C7A
:1032C000216881B10131216010BD01220221FFF787
:1032D00073FF48B3072827D01D4B1B68002BECD089
:1032E000BDE81040184701220846FFF765FF48B1C6
:1032F000072807D0164B1B6803B198472168013196
:10330000216010BD072202210120FFF755FF08B1FF
:103310000728EFD1042202210020FFF74DFF0028EB
:10332000ECD00728E6D1E9E7072202210120FFF7C8
:1033300043FF08B10728CFD1002108460A22FFF732
:103340003BFF0028B9D00728C6D110BDD42D0020DE
:10335000D02D002010B5204B82B01860B1B10C46C2
:1033600000200DF10601FFF7AFFC08B102B010BD5F
:103370000DF107010120FFF7A7FC0028F6D19DF809
:10338000073013BB9DF8063013BB2370134B18682E
:1033900010B1002002B010BD01220221FFF70CFF86
:1033A00008B10728E2D1072202210120FFF704FF1C
:1033B00008B10728DAD1002108460A22FFF7FCFEEF
:1033C0000028E6D00728D1D1E3E702232370DDE708
:1033D0000B232370DAE700BFD02D0020D42D00206E
:1033E0000649074A074B9B1A03DD043BC858D050D7
:1033F000FBDC00F013F8FCF755F80000E8BB020016
:1034000028210020B8210020FEE7FEE7FEE7FEE7C6
:10341000FEE7FEE7FEE7FEE7FEE7FEE7F0B4984BC7
:103420001B78062B1BD0974AD2F8883043F47003E0
:10343000C2F88830BFF34F8FBFF36F8F4FF0102368
:10344000D3F80022002AC0F2E980D3F80432002B1E
:10345000C0F2E4808C4B8D4A1A60F0BC70478C4BF4
:103460001B681D07DFD18B4B1B6803F0F003302B6B
:1034700002D1894B894A1A60864B1B6803F0F0021F
:10348000302A00F0BA8003F0E003402B00F0B58052
:10349000804B1B6803F0F003302B00F09E807D4BC7
:1034A0001B6803F0F002302A00F0838003F0E00391
:1034B000402B7ED0774B1B6803F0F003302B6AD093
:1034C000744B1B6803F0F003302B4DD0714B1B681D
:1034D00003F0F003502BA6D14FF08052704BD2F87E
:1034E0000414C3F82015D2F80814C3F82415D2F830
:1034F0000C14C3F82815D2F81014C3F82C15D2F800
:103500001414C3F83015D2F81814C3F83415D2F8CF
:103510001C14C3F84015D2F82014C3F84415D2F88F
:103520002414C3F84815D2F82814C3F84C15D2F85F
:103530002C14C3F85015D2F83014C3F85415D2F82F
:103540003414C3F86015D2F83814C3F86415D2F8EF
:103550003C14C3F86815D2F84014C3F86C15D2F8BF
:103560004424C3F870255EE7454B4E491B784E4D09
:103570004E484F4A05270F60012600243F21062BA5
:103580002E60046011607FF44EAF414B1B681B0737
:103590007FF449AF9AE73A4B464A1B780321062B42
:1035A00011607FF440AF3A4B1B681A077FF43BAFC2
:1035B00086E7334B1B784FF080420021062BC2F880
:1035C0000C11C2F81011C2F838157FF42CAF304B33
:1035D0001B6819077FF427AF6CE7374A2849D3687F
:1035E000097823F080730629D3607FF41CAF284B41
:1035F0001B6818077FF417AF51E7304A204B126859
:103600001B782F49C2F34232062B0A607FF40BAFBE
:103610001F4B1B681C077FF406AF39E7294B0122BB
:10362000C3F80425D3F80024002AFBD04FF0102360
:1036300015222449C3F80022D1F80034002BFBD016
:103640004FF0102315221F49C3F80422D1F800249B
:103650001C4B002AFAD00022C3F80425D3F800241A
:10366000002AFBD0BFF34F8F0649174BCA6802F4FC
:10367000E0621343CB60BFF34F8F00BFFDE700BF95
:10368000E00F00F000ED00E08C2100200090D0035E
:10369000E40F00F0E80F00F074C007400DF0ADBA81
:1036A00000C00040105600408856004018560040A8
:1036B00014560040A0050040F0ED00E04402001068
:1036C0003C05004000E001400400FA0548DF704777
:1036D00010DF704760DF704761DF7047FCF756BC52
:1036E0002DE9F047DFF8B090284ED9F80040DFF818
:1036F000AC80274FB4FA84F482B064090025B5B9D0
:103700003378DFF888A07BB901A8FFF7DFFF052831
:1037100034D020B3FCF72AFC6CB13378DFF86CA00E
:1037200001240025002BEFD002B0BDE8F087002C6B
:10373000FAD1DFF858A09AF80030002BF4D102A992
:103740003A68B8F8003021F8043D1046FFF7C4FF8E
:10375000052817D068B1FCF709FC0024CFE70198D1
:10376000FEF728FB0B4B1B68002BD5D00198984720
:10377000D2E71046D9F800309847EEE7002CD3D1B5
:103780000125D8E7002DC8D0CEE700BFD82D0020F6
:10379000DC2D0020E02D0020E42D0020DA2D00207B
:1037A000014B1878704700BFD92D002011B111F0DE
:1037B000030F01D007207047F8B51A4F1A4E1B4D62
:1037C0001B4C396032802B602368DB0708D501234E
:1037D000C4F880301749FFF77BFF30B12360F8BD94
:1037E0001449FFF775FF00B1F8BD134B01221A70A1
:1037F000FEF7F0FA0E4A92F81633C3F34113012B89
:103800000CD90E4B986818B94FF480031360F8BDBB
:103810001A6842F480021A600020F8BD42F20200E9
:10382000F8BD00BFDC2D0020DA2D0020E82D00209F
:1038300000E100E0DD360200D92D00205C350020DB
:10384000034618B1024A0020136070470E207047EB
:10385000E42D0020034618B1024A0020136070478F
:103860000E207047E02D002008B5094B1B6833B1CE
:10387000984700B908BDBDE80840FCF777BB054B89
:103880001B78002BF6D0BDE80840FFF729BF00BF2A
:10389000E82D0020D92D002070B5144605460E46AF
:1038A000104600211C22FBF771FE227D26720023A8
:1038B00063F30002012165722275A361218005B1C5
:1038C000A172002070BD00BF30B583B0194B0193C9
:1038D00002AC019A44F8082D174905460320FCF76D
:1038E000C5F821462846FFF7F5FE009A019B9A424B
:1038F00004460BD110B9204603B030BD02460F4933
:103900000120FCF7B3F8204603B030BD0C4902207B
:10391000FCF7ACF84FF08052009BD2F80C2109491B
:10392000C3EB822202F100520220FCF79FF82046EE
:1039300003B030BD2821002058B6020000B70200B5
:1039400084B60200CCB6020070B59B4C237F8EB0CB
:10395000002B75D1994AD2F80413890548D4974BA6
:10396000D3F80423520704D5D3F80821002A40F0E5
:10397000CA80924BD3F81C21C2B1A28AA07D8E4985
:1039800092B282424FF00002C3F81C2180F0A9805D
:10399000D3F81C210692069A888A8A8A8D6880B29A
:1039A0000132285C92B28A82C3F81C05834BD3F89B
:1039B0004421DAB10022C3F84421D3F84411A27E95
:1039C00004910499002A40F08980E27D7A4B6AB123
:1039D0000022587ED968DA7501228DF830000B91EB
:1039E0008DF828200AA893E8060090470EB070BD15
:1039F000D2F824110029B2D0C2F82431D2F824110F
:103A0000A37E07914FF401710798C2F808130BB910
:103A100001235360694A02238DF82830D2F880349C
:103A2000C2F88034E07DE2680D9300238DF8300009
:103A3000E375237621680B9263680AA8984798E794
:103A40005E4BD3F82421002A40F09380D3F8101164
:103A500061B1C3F81021D3F8101103910399D3F881
:103A60003C15E07DC9B2884200F0AA80534BD3F8E0
:103A70004421B2B10022C3F84421D3F84411E07DBF
:103A8000019101994C4960B1D3F83C35C8688DF873
:103A900030300123CA750B908DF828300AA80AC966
:103AA0009847464BD3F82021002A9FD00022C3F824
:103AB0002021D3F82011A07D009100993E490028D3
:103AC00094D0D3F84C058B688DF830008A750B9331
:103AD0008DF828200AC90AA8984787E701221A60AA
:103AE00073E7D3F81C310593059B00283FF45EAFC4
:103AF0008B688DF830008A750B938DF828200AC9E1
:103B00000AA8984752E7E17D2B4A002970D000218E
:103B1000C3F80811D3F8081108910899D068517EAC
:103B2000D3F818354354537ED17D0133DBB253763D
:103B3000627E214B8A427FF41CAF1A7E002A6DD12F
:103B40009B7E13B91D4B01225A601C4AE0686368D2
:103B50004FF40171C2F80813627E8DF83020002501
:103B600001220B902168E5758DF828200AA8984756
:103B7000FFE60022C3F82421D3F824110291022188
:103B80008DF828100299D3F88014C3F880140D9191
:103B9000D3F83C15E368E27522768DF830100B936C
:103BA000216863680AA89847044BD3F84421002A87
:103BB0003FF477AF5EE700BFEC2D0020002000400F
:103BC000217EF1B1D3F80062E17526F02001E568AD
:103BD000C3F8001226698DF8300001238DF82830D3
:103BE000227621680B95E66063680AA898473DE74E
:103BF000C3F80811D3F808210992099AD3F81835A7
:103C000096E7E268E17501238DF830008DF82830E1
:103C10000B9294E80A000AA8984727E7DE685D7EC1
:103C20001869DA7501210022D8601A765A768DF863
:103C300028100B968DF8305093E806000AA890479C
:103C400097E600BF6DDF704772DF704779DF70471E
:103C50007DDF704765DF70472DE9F04F83B0048842
:103C60000C9FBDF83490B7F800A0002C4CD09846BB
:103C7000002316468B4605461C4603E02A8801347D
:103C8000A24224DD6A6852F82400019000220DF15E
:103C9000030101A8FFF7DEFF10BB9DF80320B2422D
:103CA000ECD103B33A8893194B4518DC42440DF12B
:103CB000030101A80123FFF7CDFF88B93A889DF8D9
:103CC00003100A443A802A880134A242DADCDBB1CC
:103CD0003B88013BCAEB03039BB2FF2B12D90C209C
:103CE00003B0BDE8F08F3B885A1C334402334B4588
:103CF00092B2F4DC3A8008F802B03A88013292B20B
:103D00003A80D3E708F80A30002003B0BDE8F08F0E
:103D10002DE9F04700231788138090F82D3084B0E8
:103D2000144605460E46002B48D1AA78002A6FD1CA
:103D3000EA78002A2DD16A689AB1D91CB94224D8F0
:103D400002211278F154238801339BB20A21238087
:103D5000F154238801339BB22380F254238801332A
:103D600023802B89002B40F02A812B8A002B40F0E6
:103D70003F812B8B002B40F054812A6A002A00F0EF
:103D8000A78021888B1DBB4262D90C2004B0BDE8FE
:103D9000F087D91CB942F8D80221F15423880133A5
:103DA0009BB201212380F15423880B449BB22380D2
:103DB000F25423880B449BB22380BCE7082FE4D93C
:103DC00002A8FFF73FFF0028E0D113880822CA5459
:103DD000238801339BB21B222380CA5420880130E0
:103DE00080B22080062208440DF1090106F01BFF75
:103DF00023889DF8082006339BB212F0FE0218BFFC
:103E000001222380F254238801339BB223808CE764
:103E10000433BB42B9D802A8FFF718FF0028B5D178
:103E20002388BDF808200321F154238801339BB275
:103E300019212380F154238801339BB2F118238088
:103E4000F254120A4A70238802339BB223806FE730
:103E50001388052B40F2AF806FF4486803EB08002D
:103E600080B24FF27D3E704540F2A5805088052813
:103E700040F2A1806FF4486C84441FFA8CFCF44536
:103E800040F299804FF6FF7E734504D0704502D012
:103E9000834200F2908005237354238801339BB240
:103EA00012212380F154238801339BB2238011888F
:103EB000F1543344090A5970238802339BB223809A
:103EC0005288F2543344120A5A70238802332380F2
:103ED000D5F82480B8F1000F30D0B8F8042021883C
:103EE000131D0B44BB423FF650AF931CFE2B3FF615
:103EF0004CAF03327254238801339BB2FF222380DC
:103F0000F254238801339BB22380B8F80020F25486
:103F10003344120A5A702088023080B22080B8F8E8
:103F200004205AB1D8F80810002944D0304406F0D3
:103F30007AFEB8F8043022881344238095F82C3098
:103F4000002B40F08B80287800283FF41FAF2B888F
:103F5000012B30D023889A1CBA423FF616AF0128B5
:103F600005D16978023119448F42FFF40EAF023F48
:103F7000FB1A04A99BB221F8083DB018FFF768FEB0
:103F800000287FF403AF2A78022A00F0B480012AC7
:103F900060D01A460821FE2A3FF6F7AE2388551C4A
:103FA000F554238801339BB22380F15423880133D5
:103FB0001A442280EAE6072004B0BDE8F08705F144
:103FC000080802228DE89000404611463346FFF76C
:103FD00043FE00287FF4DAAE8DE890004046334679
:103FE00010220621FFF738FE00287FF4CFAEBCE692
:103FF00005F110088DE89000404633460222032167
:10400000FFF72AFE00287FF4C1AE8DE890004046FD
:10401000334610220721FFF71FFE00287FF4B6AEBB
:10402000A7E605F118088DE89000404633460222C5
:104030001421FFF711FE00287FF4A8AE8DE8900050
:104040004046334610221521FFF706FE00287FF474
:104050009DAE92E66A7893429CD29AE7D5F8288082
:10406000B8F1000FA7D0B8F804200232FE2A3FF6BC
:104070008CAE23884FF000094FF0160A0132F2543B
:10408000238801339BB2238006F803A023880133E1
:104090009BB22380B8F80020F2543344120A5A70BD
:1040A000238802339BB22380B8F80410F0180A4624
:1040B00069B1D8F808301946002B3FF47CAF06F000
:1040C000B2FDB8F80430228813449BB2238009F172
:1040D000010995F82C205FFA89F94A4509EB49084E
:1040E0007FF631AFAA6A02EB8808B8F804200232E2
:1040F000FE2AC3D949E6BDF808209342FFF449AF30
:10410000092148E72DE9F04395B01F230D46ADF88E
:104110000E300446002800F08480C27853077CD516
:1041200090F82D300021ADF80C10002B40F0DC8110
:1041300083780CAF002B40F018821946032014AE90
:1041400031445F1C023316FA87F74FF0020E16FA5D
:1041500083F601F840EC83B2012107F8401CADF86A
:104160000C3006F8402C6668002E00F08B80D81CBE
:104170001F2874D90C2015B0BDE8F083A76A002F62
:104180004BD0BA880232FE2AF4D8BDF80C304FF07A
:10419000000804AE4FF016091AE006F044FDBDF821
:1041A0000C20BB8894F82C1013449BB2ADF80C3053
:1041B00008F101085FFA88F8884508EB480780F0A5
:1041C000EF80A26A02EB8707BA880232FE2AD1D8B2
:1041D0000DF1500E9E44581C01320DF1500C0EF89A
:1041E000402C1CFA80F09A1C92B200F8409CADF86A
:1041F0000C203888B0543244000A50700433B7F8A9
:1042000004E09BB27246F018ADF80C30BEF1000F1E
:10421000CED0BB681946002BBFD1072015B0BDE832
:10422000F083ADF80C00ADB1EB78002BF5D128464A
:104230000CA90DF10E02FFF76BFD0028EED19DF8E1
:104240000E300CAA20469DF80C10FFF7FDFC15B0AF
:10425000BDE8F0832B46ADF80E502A46F2E714AFC6
:10426000591C9A1C17FA81F13B4417FA82F23678EE
:10427000ADF80C0002270A2003F8407C01F8400C3E
:1042800002F8406C2389002B40F08F80238A002B9A
:1042900040F0AB80238B002B40F0C780226A002ABD
:1042A00042D0BDF80C30991D1F293FF663AF10882E
:1042B0000528B2D96FF4486C00EB0C06B6B24FF289
:1042C0007D37BE42A9D95688052EA6D96FF4486E0F
:1042D000B6441FFA8EFEBE459FD94FF6FF77B8420F
:1042E00003D0BE4201D0B04297D814A8C7185E1CB4
:1042F00010FA86F64FF0050E981C07F840EC80B2D5
:10430000122706F8407CADF80C001788ADF80C10A9
:1043100004AE3118375404333F0A4F709BB25288B1
:10432000F2543344120A5A70676AA7B3B888BDF8CA
:104330000C30811C9A1C56181F2E3FF61BAFFE290D
:104340003FF618AF14AE1E44591C0DF1500E1EFA64
:1043500081F1033006F8400C92B2FF2001F8400CC6
:10436000ADF80C20398804AEB018B154090A417078
:104370000433BA8898B2ADF80C0062B1B96800296C
:104380003FF44BAF304406F04EFCBDF80C20BB8828
:104390001344ADF80C3094F82C1000297FF4EEAEE5
:1043A0002378002B61D104AC3DE703A904F1080791
:1043B00004AE4FF01F080222009138463346CDF874
:1043C00004801146FFF748FC00287FF427AF03ABB9
:1043D0000093CDF804803346384610220621FFF7BB
:1043E0003BFC00287FF41AAF50E703AA04F1100742
:1043F00004AE4FF01F08009238463346CDF80480D3
:1044000002220321FFF728FC00287FF407AF03AB4B
:104410000093CDF804803346384610220721FFF779
:104420001BFC00287FF4FAAE34E703AA04F1180756
:1044300004AE4FF01F08009238463346CDF8048092
:1044400002221421FFF708FC00287FF4E7AE03AB3B
:104450000093CDF804803346384610221521FFF72B
:10446000FBFB00287FF4DAAE18E72288012A3FF42C
:10447000D4AEBDF80C20901C1F283FF67BAE012B5C
:1044800005D16378134402331F2B3FF673AEC2F19C
:104490001D0314A99BB204AE21F8203D3044FFF760
:1044A000D7FB00287FF4BAAE2278022A00F087807A
:1044B000012A00F08B80ADF830301A460820FE2A21
:1044C0003FF658AEBDF80C3014AC591CE71814FA7E
:1044D00081F102331344013207F8402C3446ADF821
:1044E0000C3001F8400C9EE60CAF3846FFF7AAFBF3
:1044F00000287FF493AEBDF80C3014A903F1010E2F
:104500009A1C11FA8EFE0B4492B204AEB018082128
:104510001B2603F8401CADF80C200DF131010622DA
:104520000EF8406C06F07FFBBDF80C209DF83010B3
:10453000931D11F0FE019BB23BD114A8034403F874
:10454000401CD31DA2789BB2ADF80C304AB9E2787A
:10455000002A3FF408AED81C1F2819463FF60AAEC1
:10456000EDE504331F2B3FF605AE3846FFF76EFB33
:1045700000287FF453AEBDF80C30BDF83010E2785F
:104580005F1C14AE16FA87F71E44981C4FF0030EFA
:1045900006F840EC80B204AE4FF0190E07F840EC7C
:1045A0000433371831549BB2090AADF80C307970D6
:1045B000CEE714A90B44012103F8401CC1E7BDF864
:1045C00030209342FFF477AF092078E76278934276
:1045D000FFF471AFADF83020082070E773DF70474B
:1045E00074DF7047F0B5844D85B006460722002180
:1045F0008248FAF7CBFF6B78FBB9AB78804F002B82
:1046000070D17E4C6378002B70D1A378002B6DD1D4
:10461000E378002B6AD12379002B67D16379002BD3
:1046200064D1A379003318BF0123701E032800F260
:10463000DF80DFE800F0164F1C38714F3B78012B0C
:1046400004D0AA78002ADCD0022BDAD16D4B6E4A56
:104650001B68002B00F0C3800121082011709847CF
:10466000CFE76A78002A35D0002B40F0BA80EB788B
:10467000CBB1644B1B6803223A70E3B9634B002251
:104680001A70102268460021FAF780FF3B7800225A
:104690008DF800208DF80820042B49D8DFE803F0BE
:1046A00093876D4B28002B79D3B1564B1B6804229E
:1046B0003A70002BE2D02A78002ADFD0544A1278D0
:1046C000002ADBD1534851490270012207200A70A9
:1046D0009847D6E7AA78002AC9D0002BC7D0022372
:1046E0003B70CBE73B78012BAED1AFE701239CE7D2
:1046F0002B78A969EA69ADF80A10ADF80C20002BF7
:1047000065D0434B1978002961D1424B1B78002BAF
:104710005DD0414B042402221846DC708DF808203D
:10472000FFF7F0FC00285FD13C4A3B78062111706E
:10473000002B33D02EE02B7829696A69ADF80A1076
:10474000ADF80C20002B46D0314B1978002942D10E
:10475000304B1B78002B3ED02F4B042402221846EE
:10476000DC708DF80820FFF7CDFC00283CD12B4AE7
:104770003B78052111708BB10CE02848EA68AB68E2
:1047800001940121022404708DF80010ADF80C2072
:10479000ADF80A306846FFF721FF30B9194B1B68A6
:1047A00013B11E4A10789847002005B0F0BD1B4990
:1047B0000194012200230A708DF80020ADF80C301E
:1047C000ADF80A30E6E7154B00221A70E6E7134B06
:1047D00004221A70DEE7114B03221A70DAE7137015
:1047E0000FE701233B7049E73B78002BD6D0D1E798
:1047F00000233B7042E700BF882E0020802E00205F
:10480000CE2E0020542E0020CF2E0020CB2E0020B4
:104810007B2E0020442E00200C2E0020E02E0020B5
:104820002DE9F84FDDF828E0002800F09880002AF4
:1048300000F09580144605469C460E460FCC494F25
:10484000DFF84491DFF844A1DFF84481DFF844B198
:10485000C8F800C00FC794E80F00002487E80F00D5
:10486000414F424B4248CBF800E0012289F800203A
:10487000214607224FF6FF79A3F800908AF80040FE
:10488000FAF784FE214638223846FAF77FFE05F112
:10489000100393E80300AA78EB7895F800E0BA706B
:1048A000FB7007F1100395F801C087F800E083E87A
:1048B000030005F1080393E8030007F1080E05F172
:1048C00018038EE8030093E803006A6A87F801C0C2
:1048D00007F1180383E80300B2B1264B7B62686AD4
:1048E000254A9A60B0F804E001881980A3F804E032
:1048F000BEF1000F08D0013A23468168C95C02F876
:10490000011F01337345F8D1AB6AB3B11B4BBB62D6
:10491000A86A1B4A9A6084889C800188198044B1E7
:10492000013A00238168C95C02F8011F0133A342E8
:10493000F8D195F82C3087F82C302B6A33B1114B15
:104940003B622A6A5188598012881A806B6803B1C9
:104950007B6031460448BDE8F84FFFF7D3BB0E201B
:10496000BDE8F88F882E00200C2E0020CC2E0020D1
:10497000802E0020482E00205C2E0020D42E002007
:10498000AC2E0020A82E0020D02E0020CE2E0020FD
:10499000542E00207C2E00200C4B1B780BB90820D5
:1049A000704710B50A4B82B0044601A81C70FCF792
:1049B00083FE019B2BB1074B01221A70002002B02D
:1049C00010BD2046FFF70EFEF9E700BFD02E0020F5
:1049D000CE2E0020582E002010B50388112B82B057
:1049E00019D01B2B0AD0102B01D002B010BDC37BF5
:1049F000012BFAD1214B82881A80F6E7037A002B2B
:104A0000F3D11F4B1B78F3B908201E4B1B68002BFA
:104A1000EBD09847E9E7194A838812881A490020A1
:104A20009A420870E1D1164B1B78002BECD0174B43
:104A3000012401A81C70FCF73FFE019BBBB1144B85
:104A400001221A70D1E71149124C0B78013384FB13
:104A50000324DA17C2EB640404EB84041B1BDCB2EE
:104A600001A80C70FCF728FE019B002BE7D1204623
:104A7000FFF7B8FD0028B8D0C7E700BFCC2E002054
:104A8000D02E00207C2E00207B2E0020CE2E002059
:104A9000582E0020676666660238012813D830B5A4
:104AA000114C237883B00BB903B030BD0F4B1B788A
:104AB0000022227043B908200D4B1B68002BF3D055
:104AC000984703B030BD70470A4B01A81D78FCF72A
:104AD000F3FD019B13B101232370E5E72846FFF79F
:104AE00081FD0028E0D0E7E7582E0020D02E0020DE
:104AF0007C2E0020CE2E0020F0B583B0FFF770FD95
:104B0000164A174C174E0023062710460125194652
:104B10002370D7703570FFF7F5FA044608B103B07B
:104B2000F0BD114B1B783BB90820104B1B6803B13B
:104B30009847002003B0F0BD0D4B01A81E78FCF78C
:104B4000BBFD019B1BB10B4B20461D70E7E73046B8
:104B5000FFF748FD0028ECD0E7E700BF0C2E00204F
:104B6000442E00207B2E0020D02E00207C2E002002
:104B7000CE2E0020582E002075DF704776DF70475C
:104B80007ADF70477BDF7047184B18884FF6FF734A
:104B900098422AD010B5164A164C1378217B01335F
:104BA000DBB2994282B013700CD2237C00211170C9
:104BB0008BB9636923B102A8002200F8042D98473D
:104BC00002B010BD0C49FFF7D7FF0028F8D0A36949
:104BD000002BF4D1F4E73B21FFF7D0FF0028E8D009
:104BE000A369002BE5D09847E3E770472C2F0020FE
:104BF000EC2E0020F02E0020302F002070B51E4B30
:104C00001E4A5B881188994282B00FD852889A4216
:104C10000CD31B4B5B6923B102A8012200F8042DC1
:104C20009847184C0023237002B070BD154C2278B1
:104C300062B1134B5B69002BF4D002A8002200F88C
:104C4000042D98470023237002B070BD0C4D0E4810
:104C500069680678AB680D48002E18BF194605F044
:104C60001FFF0028DED0AB69002BDBD09847002364
:104C7000237002B070BD00BFE42E0020302F002052
:104C8000F02E0020E12E0020EC2E00200C2F002022
:104C9000F8B505460FCD144C144F0FC4064695E8E1
:104CA0000700002384E807003B70B6B13068104B62
:104CB000716803C3A3F10800FFF762FF90B90D4DBF
:104CC0000D4C0E4A0E4800234FF6FF762E802370BF
:104CD0001946BDE8F84005F0D1BE0548FFF752FF80
:104CE0000028ECD0F8BD00BFF02E0020E12E0020FF
:104CF000302F00202C2F0020EC2E0020894B0200AA
:104D000028B7020070B50388112B27D012D9122BB7
:104D100007D0502B47D1244CC288E3899A4230D027
:104D200070BD083003C8214B83E80300BDE8704024
:104D3000FFF764BF102B35D11D491B4C1B4B1D4D7C
:104D4000E48900F110028088088092E803000022C4
:104D500083E803002A70002CE8D070BD1449154B7D
:104D600015484FF6FF7400220C801A7005F0F0FE13
:104D70000028D5D00C4B9B69002BD1D0BDE87040EA
:104D80001847038A022BCBD1123000F01FF90028FC
:104D9000CCD1094805F0DCFE0028C1D0A369002B66
:104DA000ECD1BDE770BD70BDF02E0020E42E0020D8
